:100000000C94DF010C94FD010C94FD010C94FD0196
:100010000C94FD010C94FD010C94FD010C94FD0168
:100020000C94FD010C94FD010C94FD010C94FD0158
:100030000C94FD010C94FD010C94FD010C94FD0148
:100040000C94FD010C94FD010C94FD010C94FD0138
:100050000C94FD010C94FD010C94FD010C94FD0128
:100060000C94FD010C94FD010C94FD010C94FD0118
:100070000C94FD010C94FD010C94FD010C94FD0108
:100080000C94FD010C94FD010C94FD010C94FD01F8
:100090000C94FD010C94FD010C94FD010C94FD01E8
:1000A0000C94FD010C94FD010C94FD010C94FD01D8
:1000B0000C94FD010C94FD010C94FD010C94FD01C8
:1000C0000C94FD010C94FD010C94FD010C94FD01B8
:1000D0000C94FD010C94FD010C94FD010C94FD01A8
:1000E0000C94FD010C94FD010C94FD010C94FD0198
:1000F0000C94FD010C94FD010C94FD010C94FD0188
:100100000C94FD010C94FD010C94FD010C94FD0177
:100110000C94FD010C94FD010C94FD010C94FD0167
:100120000C94FD010C94FD010C94FD010C94FD0157
:100130000C94FD010C94FD010C94FD010C94FD0147
:100140000C94FD010C94FD010C94FD010C94FD0137
:100150000C94FD010C94FD010C94FD010C94FD0127
:100160000C94FD010C94FD010C94FD010C94FD0117
:100170000C94FD010C94FD010C94FD010C94FD0107
:100180000C94FD010C94FD010C94FD010C94FD01F7
:100190000C94FD010C94FD010C94FD010C94FD01E7
:1001A0000C94FD010C94FD010C94FD010C94FD01D7
:1001B0000C94FD010C94FD010C94FD010C94FD01C7
:1001C0000C94FD010C94FD010C94FD010C94FD01B7
:1001D0000C94FD010C94FD010C94FD010C94FD01A7
:1001E0000C94FD010C94FD010C94FD010C94FD0197
:1001F0000C94FD010C94FD010C94FD017F7F0043E4
:10020000000000007D7A0043C2860F40766B0043F9
:100210002A818F406A520043C133D7405E2F00438A
:10022000C86A0F4152020043813033419696FF4223
:1002300041E856419A14FF423E8F7A41B97EFE4210
:1002400059118F4100D5FD42EBCFA0417C17FD42F3
:10025000F281B2413B46FC420E26C4414E61FB4254
:10026000DEBAD541C768FA42043FE741B95CF942BA
:1002700021B1F841393DF842ED0705425D0AF742E8
:10028000EAAC0D423EC4F542DA461642F56AF44243
:1002900012D51E429CFEF242E8562742507FF142A0
:1002A000B1CB2F4230EDEF42C53238425948EE42D1
:1002B0007B8B4042EE90EC422ED5484211C7EA4279
:1002C000380F5142E4EAE842F43859428EFCE642E3
:1002D000C051614235FCE442F958694200EAE24209
:1002E000014E71421AC6E04237307942AD90DE428B
:1002F0007F7F8042E449DC42DE5C8442EEF1D942F9
:10030000EB2F8842F988D74258F88B42350FD542F7
:10031000DCB58F42D484D2422A68934209EACF42A4
:10032000FA0E9742073FCD4203AA9A420384CA427B
:10033000FB389E4235B9C7429EBBA142D4DEC442BF
:10034000A331A54218F5C142C79AA8423DFCBE425E
:10035000C5F6AB427DF4BB425A45AF4215DEB8420A
:100360004486B24242B9B54242B9B54200010203E5
:10037000040405060708090A0B0B0C0D0E0F1011DB
:1003800011121314151516171818191A1B1B1C1DFA
:100390001D1E1F1F2021212223232424252526273B
:1003A00027282829292A2A2B2B2C2C2D2D01060021
:1003B00007020503040200040607050103001124D7
:1003C0001FBECFEFCDBFDFE3DEBF00E00CBF18BE26
:1003D00019BE1ABE1BBE10E2A0E0B0E2E4E5FEE0EA
:1003E00000E00BBF02C007900D92A031B107D9F712
:1003F0001BBE0E94FF010C9428070C940000CF93B1
:10040000DF93CDB7DEB7C654D109CDBFDEBFCE0175
:100410000396049689839A838AE090E08F83988775
:100420008CED90E089879A8782ED90E08B879C879E
:1004300086EE90E08D879E8780EF90E08F87988B87
:1004400087ED90E0898B9A8B8FEF90E08B8B9C8B64
:1004500085E090E08D8B9E8B8FEF90E08F8B988F57
:100460008BEF9FEF898F9A8F80EF90E08B8F9C8F1F
:1004700089E29FEF8D8F9E8F82ED90E08F8F98A302
:100480008AE19FEF89A39AA38AE090E08BA39CA3C3
:1004900084E29FEF8DA39EA386EF9FEF8FA398A783
:1004A00084E29FEF89A79AA78EE29FEF8BA79CA774
:1004B0008AE19FEF8DA79EA780E19FEF8FA798AB62
:1004C00089E29FEF89AB9AAB81E09FEF8BAB9CAB4E
:1004D0008BEF9FEF8DAB9EAB81E09FEF8BAB9CAB27
:1004E00085E090E089AF9AAF80E19FEF8BAF9CAF42
:1004F00087ED90E08DAF9EAF2EE23FEFCE01CF961D
:10050000FC0120833183CE018F5B9F4F26EE30E0CC
:10051000FC0120833183CE018D5B9F4F26EF3FEF9F
:10052000FC0120833183CE018B5B9F4F2CED30E0AB
:10053000FC012083318329813A81C9010296898394
:100540009A8389819A81AC014E5F5F4F49835A83B8
:10055000B9010E949C0329813A81C90102968983CD
:100560009A8389819A81AC014E5F5F4F49835A8398
:10057000B9010E949C0329813A81C90102968983AD
:100580009A8389819A81AC014E5F5F4F49835A8378
:10059000B9010E949C0329813A81C901029689838D
:1005A0009A8389819A81AC014E5F5F4F49835A8358
:1005B000B9010E949C0329813A81C901029689836D
:1005C0009A8389819A81AC014E5F5F4F49835A8338
:1005D000B9010E949C0329813A81C901029689834D
:1005E0009A8389819A81AC014E5F5F4F49835A8318
:1005F000B9010E949C0329813A81C901029689832D
:100600009A8389819A81AC014E5F5F4F49835A83F7
:10061000B9010E949C0329813A81C901029689830C
:100620009A8389819A81AC014E5F5F4F49835A83D7
:10063000B9010E949C0329813A81C90102968983EC
:100640009A8389819A81AC014E5F5F4F49835A83B7
:10065000B9010E949C0329813A81C90102968983CC
:100660009A8389819A81AC014E5F5F4F49835A8397
:10067000B9010E949C0329813A81C90102968983AC
:100680009A8389819A81AC014E5F5F4F49835A8377
:10069000B9010E949C0329813A81C901029689838C
:1006A0009A8389819A81AC014E5F5F4F49835A8357
:1006B000B9010E949C0329813A81C901029689836C
:1006C0009A8389819A81AC014E5F5F4F49835A8337
:1006D000B9010E949C0329813A81C901029689834C
:1006E0009A8389819A81AC014E5F5F4F49835A8317
:1006F000B9010E949C0329813A81C901029689832C
:100700009A8389819A81AC014E5F5F4F49835A83F6
:10071000B9010E949C0329813A81C901029689830B
:100720009A8389819A81AC014E5F5F4F49835A83D6
:10073000B9010E949C036BCECF92DF92EF92FF92A1
:10074000CF93DF93CDB7DEB7A897CDBFDEBF8DA324
:100750009EA36FA378A719828DA19EA1892B09F46E
:1007600002C28FA198A5892B09F4FDC18DA19EA17C
:10077000FC018081918199235CF489818160898366
:100780008DA19EA1FC018081918181958A8306C003
:100790008DA19EA1FC01808191818A838FA198A562
:1007A000FC018081918199235CF489818460898333
:1007B0008FA198A5FC018081918181958B8306C0D2
:1007C0008FA198A5FC01808191818B839B818A8177
:1007D000891778F48981826089839B818A8189273E
:1007E0008B839A818B8189278A839B818A81892740
:1007F0008B838B81882F90E00024969587950794B2
:10080000969587950794982F802D2A81222F30E086
:10081000B9010E94F106CB0184599C4F88879987C2
:1008200088859985FC0184918A878A85882F90E044
:100830008C839D838981082E000C990B83559C4FD6
:100840008B879C878B859C85FC0184918D878D850A
:10085000898389818170882351F02DE230E08C8179
:100860009D81A901481B590BCA018C839D838981F5
:10087000873049F4809100209091012088599E4F43
:100880008E839F830EC08981082E000C990B0196E0
:10089000880F991F8050904EFC01808191818E833A
:1008A0009F838981082E000C990B880F991F805017
:1008B000904EFC01808191812E813F81A901481BCE
:1008C000590BCA018E839F832C813D818E819F812C
:1008D000289FA001299F500D389F500D11249A0187
:1008E000A3E8BDE20E9405079695879596958795A2
:1008F000969587958C839D838981082E000C990B92
:10090000880F991F8050904EFC01808191812C812D
:100910003D81820F931F8C839D838C819D819C01DF
:10092000A3E8BDE20E940507969587959695879561
:100930009695879589834C815D819A01A3E8BDE2F4
:100940000E9405079C013695279536952795369583
:1009500027956DE2629FC001639F900D11249A015B
:10096000281B390BC9018C839D8389818170882361
:1009700051F02DE230E08C819D81A901481B590B7B
:10098000CA018C839D838A81882F90E08E839F8308
:100990008C819D81880F991F880F991F880F991F3F
:1009A00084509E4F8E879F878E859F859C01F9017D
:1009B00085919591A591B4919F01888B998BAA8B74
:1009C000BB8B2E873F87C888D988EA88FB888E81B1
:1009D0009F81CC01A0E0B0E0BC01CD010E94F605F2
:1009E000DC01CB019C01AD01C701B6010E945C0690
:1009F000DC01CB018C8B9D8BAE8BBF8B8C819D8161
:100A0000880F991F880F991F880F991F049684508B
:100A10009E4F888F998F888D998D9C01F9018591C2
:100A20009591A591B4919F018A8F9B8FAC8FBD8FBB
:100A3000288F398FCA8CDB8CEC8CFD8C8E819F814A
:100A4000CC01A0E0B0E0BC01CD010E94F605DC01C4
:100A5000CB019C01AD01C701B6010E945C06DC011F
:100A6000CB018E8F9F8FA8A3B9A38981082E000C7C
:100A7000990B8B549C4F8AA39BA38AA19BA1FC0139
:100A800084918CA38CA189838981082E000C990BF9
:100A900082709927892BE9F06E8D7F8D88A199A1AD
:100AA0000E94C005DC01CB019C018DA19EA1FC012F
:100AB000208331836C897D898E899F890E94C0053E
:100AC000DC01CB019C018FA198A5FC01208331831F
:100AD0001CC06C897D898E899F890E94C005DC01BC
:100AE000CB019C018DA19EA1FC01208331836E8DE1
:100AF0007F8D88A199A10E94C005DC01CB019C01DA
:100B00008FA198A5FC01208331838981082E000CD8
:100B1000990B81709927892B71F08DA19EA1FC0101
:100B20008081918122273327281B390B8DA19EA11B
:100B3000FC01208331838981082E000C990B84707D
:100B40009927892B91F08FA198A5FC018081918133
:100B500022273327281B390B8FA198A5FC0120835E
:100B60003183000002C0000001C00000A896CDBF84
:100B7000DEBFDF91CF91FF90EF90DF90CF9008958F
:100B80000E94C7056894B1110C94560608950E94FE
:100B90003B0688F09F5798F0B92F9927B751B0F0CE
:100BA000E1F0660F771F881F991F1AF0BA95C9F7F1
:100BB00014C0B13091F00E945506B1E008950C9434
:100BC0005506672F782F8827B85F39F0B93FCCF3E7
:100BD000869577956795B395D9F73EF4909580956E
:100BE000709561957F4F8F4F9F4F0895E89409C08E
:100BF00097FB3EF490958095709561957F4F8F4F50
:100C00009F4F9923A9F0F92F96E9BB279395F69565
:100C1000879577956795B795F111F8CFFAF4BB0FE3
:100C200011F460FF1BC06F5F7F4F8F4F9F4F16C047
:100C3000882311F096E911C0772321F09EE8872FD1
:100C4000762F05C0662371F096E8862F70E060E08D
:100C50002AF09A95660F771F881FDAF7880F969506
:100C6000879597F9089557FD9058440F551F59F0EF
:100C70005F3F71F04795880F97FB991F61F09F3F89
:100C800079F087950895121613061406551FF2CFB2
:100C90004695F1DF08C0161617061806991FF1CF02
:100CA00086957105610508940895E894BB27662729
:100CB0007727CB0197F908950E946F060C94E00600
:100CC0000E94D20638F00E94D90620F0952311F038
:100CD0000C94C9060C94CF0611240C9456060E945D
:100CE000330670F3959FC1F3950F50E0551F629F37
:100CF000F001729FBB27F00DB11D639FAA27F00D75
:100D0000B11DAA1F649F6627B00DA11D661F829F9B
:100D10002227B00DA11D621F739FB00DA11D621F80
:100D2000839FA00D611D221F749F3327A00D611D9D
:100D3000231F849F600D211D822F762F6A2F11247F
:100D40009F5750409AF0F1F088234AF0EE0FFF1FB2
:100D5000BB1F661F771F881F91505040A9F79E3F09
:100D6000510580F00C94C9060C9456065F3FE4F3DD
:100D7000983ED4F3869577956795B795F795E7955F
:100D80009F5FC1F7FE2B880F911D9695879597F968
:100D9000089597F99F6780E870E060E008959FEFFD
:100DA00080EC089500240A94161617061806090602
:100DB000089500240A9412161306140605060895D1
:100DC000092E0394000C11F4882352F0BB0F40F459
:100DD000BF2B11F460FF04C06F5F7F4F8F4F9F4F99
:100DE000089597FB072E16F4009407D077FD09D0DD
:100DF0000E94140707FC05D03EF4909581959F4F03
:100E00000895709561957F4F0895A29FB001B39F9B
:100E1000C001A39F700D811D1124911DB29F700D03
:100E2000811D1124911D0895AA1BBB1B51E107C010
:100E3000AA1FBB1FA617B70710F0A61BB70B881F6A
:100E4000991F5A95A9F780959095BC01CD010895F9
:040E5000F894FFCF44
:100E540000003C0050008700B400E10018012C01A0
:00000001FF
